{
  "_format": "hh3-artifact-1",
  "contractName": "SimpleVault",
  "sourceName": "contracts/simple-vault.sol",
  "abi": [
    {
      "inputs": [
        {
          "internalType": "address",
          "name": "",
          "type": "address"
        }
      ],
      "name": "balances",
      "outputs": [
        {
          "internalType": "uint256",
          "name": "",
          "type": "uint256"
        }
      ],
      "stateMutability": "view",
      "type": "function"
    },
    {
      "inputs": [],
      "name": "deposit",
      "outputs": [],
      "stateMutability": "payable",
      "type": "function"
    },
    {
      "inputs": [],
      "name": "getBalance",
      "outputs": [
        {
          "internalType": "uint256",
          "name": "",
          "type": "uint256"
        }
      ],
      "stateMutability": "view",
      "type": "function"
    },
    {
      "inputs": [
        {
          "internalType": "uint256",
          "name": "amount",
          "type": "uint256"
        }
      ],
      "name": "withdraw",
      "outputs": [],
      "stateMutability": "nonpayable",
      "type": "function"
    }
  ],
  "bytecode": "0x6080604052348015600e575f5ffd5b506102ab8061001c5f395ff3fe60806040526004361061003e575f3560e01c806312065fe01461004257806327e235e3146100705780632e1a7d4d1461009b578063d0e30db0146100bc575b5f5ffd5b34801561004d575f5ffd5b50335f908152602081905260409020545b60405190815260200160405180910390f35b34801561007b575f5ffd5b5061005e61008a3660046101f1565b5f6020819052908152604090205481565b3480156100a6575f5ffd5b506100ba6100b536600461021e565b6100c4565b005b6100ba6101cc565b335f9081526020819052604090205481111561011e5760405162461bcd60e51b8152602060048201526014602482015273496e73756666696369656e742062616c616e636560601b60448201526064015b60405180910390fd5b335f908152602081905260408120805483929061013c908490610249565b90915550506040515f90339083908381818185875af1925050503d805f8114610180576040519150601f19603f3d011682016040523d82523d5f602084013e610185565b606091505b50509050806101c85760405162461bcd60e51b815260206004820152600f60248201526e151c985b9cd9995c8819985a5b1959608a1b6044820152606401610115565b5050565b335f90815260208190526040812080543492906101ea908490610262565b9091555050565b5f60208284031215610201575f5ffd5b81356001600160a01b0381168114610217575f5ffd5b9392505050565b5f6020828403121561022e575f5ffd5b5035919050565b634e487b7160e01b5f52601160045260245ffd5b8181038181111561025c5761025c610235565b92915050565b8082018082111561025c5761025c61023556fea2646970667358221220c4f0b3f1450270b63afa67bda5ef591feb59dd608d78794c8dbd45853ae85efe64736f6c634300081c0033",
  "linkReferences": {},
  "deployedLinkReferences": {},
  "immutableReferences": {},
  "inputSourceName": "project/contracts/simple-vault.sol",
  "buildInfoId": "solc-0_8_28-b0f0b79661131389e0f085fca7e61ab305b3e304"
}