{
  "_format": "hh3-artifact-1",
  "contractName": "SimpleBank",
  "sourceName": "contracts/SimpleBank.sol",
  "abi": [
    {
      "inputs": [],
      "stateMutability": "nonpayable",
      "type": "constructor"
    },
    {
      "inputs": [],
      "name": "deposit",
      "outputs": [],
      "stateMutability": "payable",
      "type": "function"
    },
    {
      "inputs": [],
      "name": "getBalance",
      "outputs": [
        {
          "internalType": "uint256",
          "name": "",
          "type": "uint256"
        }
      ],
      "stateMutability": "view",
      "type": "function"
    },
    {
      "inputs": [],
      "name": "getTotalBankBalance",
      "outputs": [
        {
          "internalType": "uint256",
          "name": "",
          "type": "uint256"
        }
      ],
      "stateMutability": "view",
      "type": "function"
    },
    {
      "inputs": [],
      "name": "owner",
      "outputs": [
        {
          "internalType": "address",
          "name": "",
          "type": "address"
        }
      ],
      "stateMutability": "view",
      "type": "function"
    },
    {
      "inputs": [
        {
          "internalType": "uint256",
          "name": "amount",
          "type": "uint256"
        }
      ],
      "name": "withdraw",
      "outputs": [],
      "stateMutability": "nonpayable",
      "type": "function"
    }
  ],
  "bytecode": "0x6080604052348015600e575f5ffd5b50600180546001600160a01b031916331790556103078061002e5f395ff3fe608060405260043610610049575f3560e01c806312065fe01461004d5780632e1a7d4d1461007c57806338a2ca401461009d5780638da5cb5b146100b1578063d0e30db0146100e8575b5f5ffd5b348015610058575f5ffd5b50335f908152602081905260409020545b6040519081526020015b60405180910390f35b348015610087575f5ffd5b5061009b61009636600461027a565b6100f0565b005b3480156100a8575f5ffd5b5061006961019b565b3480156100bc575f5ffd5b506001546100d0906001600160a01b031681565b6040516001600160a01b039091168152602001610073565b61009b610206565b335f9081526020819052604090205481111561014a5760405162461bcd60e51b8152602060048201526014602482015273496e73756666696369656e742062616c616e636560601b60448201526064015b60405180910390fd5b335f90815260208190526040812080548392906101689084906102a5565b9091555050604051339082156108fc029083905f818181858888f19350505050158015610197573d5f5f3e3d5ffd5b5050565b6001545f906001600160a01b031633146102015760405162461bcd60e51b815260206004820152602160248201527f4f6e6c79206f776e65722063616e2063616c6c20746869732066756e6374696f6044820152603760f91b6064820152608401610141565b504790565b5f34116102555760405162461bcd60e51b815260206004820152601d60248201527f416d6f756e74206d7573742062652067726561746572207468616e20300000006044820152606401610141565b335f90815260208190526040812080543492906102739084906102be565b9091555050565b5f6020828403121561028a575f5ffd5b5035919050565b634e487b7160e01b5f52601160045260245ffd5b818103818111156102b8576102b8610291565b92915050565b808201808211156102b8576102b861029156fea264697066735822122098e862404397cbe11026493a0dee9c53a9dec74e1edab91afc52a474ea67766364736f6c634300081c0033",
  "linkReferences": {},
  "deployedLinkReferences": {},
  "immutableReferences": {},
  "inputSourceName": "project/contracts/SimpleBank.sol",
  "buildInfoId": "solc-0_8_28-ae96fba9ad5a732d3757542ad4ce102f4b6e2eb6"
}