{
  "_format": "hh-sol-artifact-1",
  "contractName": "DiaryNFT",
  "sourceName": "contracts/DiaryNft.sol",
  "abi": [
    {
      "inputs": [],
      "stateMutability": "nonpayable",
      "type": "constructor"
    },
    {
      "inputs": [
        {
          "internalType": "address",
          "name": "sender",
          "type": "address"
        },
        {
          "internalType": "uint256",
          "name": "tokenId",
          "type": "uint256"
        },
        {
          "internalType": "address",
          "name": "owner",
          "type": "address"
        }
      ],
      "name": "ERC721IncorrectOwner",
      "type": "error"
    },
    {
      "inputs": [
        {
          "internalType": "address",
          "name": "operator",
          "type": "address"
        },
        {
          "internalType": "uint256",
          "name": "tokenId",
          "type": "uint256"
        }
      ],
      "name": "ERC721InsufficientApproval",
      "type": "error"
    },
    {
      "inputs": [
        {
          "internalType": "address",
          "name": "approver",
          "type": "address"
        }
      ],
      "name": "ERC721InvalidApprover",
      "type": "error"
    },
    {
      "inputs": [
        {
          "internalType": "address",
          "name": "operator",
          "type": "address"
        }
      ],
      "name": "ERC721InvalidOperator",
      "type": "error"
    },
    {
      "inputs": [
        {
          "internalType": "address",
          "name": "owner",
          "type": "address"
        }
      ],
      "name": "ERC721InvalidOwner",
      "type": "error"
    },
    {
      "inputs": [
        {
          "internalType": "address",
          "name": "receiver",
          "type": "address"
        }
      ],
      "name": "ERC721InvalidReceiver",
      "type": "error"
    },
    {
      "inputs": [
        {
          "internalType": "address",
          "name": "sender",
          "type": "address"
        }
      ],
      "name": "ERC721InvalidSender",
      "type": "error"
    },
    {
      "inputs": [
        {
          "internalType": "uint256",
          "name": "tokenId",
          "type": "uint256"
        }
      ],
      "name": "ERC721NonexistentToken",
      "type": "error"
    },
    {
      "anonymous": false,
      "inputs": [
        {
          "indexed": true,
          "internalType": "address",
          "name": "owner",
          "type": "address"
        },
        {
          "indexed": true,
          "internalType": "address",
          "name": "approved",
          "type": "address"
        },
        {
          "indexed": true,
          "internalType": "uint256",
          "name": "tokenId",
          "type": "uint256"
        }
      ],
      "name": "Approval",
      "type": "event"
    },
    {
      "anonymous": false,
      "inputs": [
        {
          "indexed": true,
          "internalType": "address",
          "name": "owner",
          "type": "address"
        },
        {
          "indexed": true,
          "internalType": "address",
          "name": "operator",
          "type": "address"
        },
        {
          "indexed": false,
          "internalType": "bool",
          "name": "approved",
          "type": "bool"
        }
      ],
      "name": "ApprovalForAll",
      "type": "event"
    },
    {
      "anonymous": false,
      "inputs": [
        {
          "indexed": true,
          "internalType": "uint256",
          "name": "tokenId",
          "type": "uint256"
        },
        {
          "indexed": true,
          "internalType": "address",
          "name": "recipient",
          "type": "address"
        },
        {
          "indexed": false,
          "internalType": "string",
          "name": "ipfsHash",
          "type": "string"
        }
      ],
      "name": "DiaryMinted",
      "type": "event"
    },
    {
      "anonymous": false,
      "inputs": [
        {
          "indexed": true,
          "internalType": "address",
          "name": "from",
          "type": "address"
        },
        {
          "indexed": true,
          "internalType": "address",
          "name": "to",
          "type": "address"
        },
        {
          "indexed": true,
          "internalType": "uint256",
          "name": "tokenId",
          "type": "uint256"
        }
      ],
      "name": "Transfer",
      "type": "event"
    },
    {
      "inputs": [
        {
          "internalType": "address",
          "name": "to",
          "type": "address"
        },
        {
          "internalType": "uint256",
          "name": "tokenId",
          "type": "uint256"
        }
      ],
      "name": "approve",
      "outputs": [],
      "stateMutability": "nonpayable",
      "type": "function"
    },
    {
      "inputs": [
        {
          "internalType": "address",
          "name": "owner",
          "type": "address"
        }
      ],
      "name": "balanceOf",
      "outputs": [
        {
          "internalType": "uint256",
          "name": "",
          "type": "uint256"
        }
      ],
      "stateMutability": "view",
      "type": "function"
    },
    {
      "inputs": [
        {
          "internalType": "uint256",
          "name": "tokenId",
          "type": "uint256"
        }
      ],
      "name": "getApproved",
      "outputs": [
        {
          "internalType": "address",
          "name": "",
          "type": "address"
        }
      ],
      "stateMutability": "view",
      "type": "function"
    },
    {
      "inputs": [
        {
          "internalType": "address",
          "name": "owner",
          "type": "address"
        },
        {
          "internalType": "address",
          "name": "operator",
          "type": "address"
        }
      ],
      "name": "isApprovedForAll",
      "outputs": [
        {
          "internalType": "bool",
          "name": "",
          "type": "bool"
        }
      ],
      "stateMutability": "view",
      "type": "function"
    },
    {
      "inputs": [
        {
          "internalType": "address",
          "name": "recipient",
          "type": "address"
        },
        {
          "internalType": "string",
          "name": "ipfsHash",
          "type": "string"
        }
      ],
      "name": "mintDiary",
      "outputs": [
        {
          "internalType": "uint256",
          "name": "",
          "type": "uint256"
        }
      ],
      "stateMutability": "nonpayable",
      "type": "function"
    },
    {
      "inputs": [],
      "name": "name",
      "outputs": [
        {
          "internalType": "string",
          "name": "",
          "type": "string"
        }
      ],
      "stateMutability": "view",
      "type": "function"
    },
    {
      "inputs": [
        {
          "internalType": "uint256",
          "name": "tokenId",
          "type": "uint256"
        }
      ],
      "name": "ownerOf",
      "outputs": [
        {
          "internalType": "address",
          "name": "",
          "type": "address"
        }
      ],
      "stateMutability": "view",
      "type": "function"
    },
    {
      "inputs": [
        {
          "internalType": "address",
          "name": "from",
          "type": "address"
        },
        {
          "internalType": "address",
          "name": "to",
          "type": "address"
        },
        {
          "internalType": "uint256",
          "name": "tokenId",
          "type": "uint256"
        }
      ],
      "name": "safeTransferFrom",
      "outputs": [],
      "stateMutability": "nonpayable",
      "type": "function"
    },
    {
      "inputs": [
        {
          "internalType": "address",
          "name": "from",
          "type": "address"
        },
        {
          "internalType": "address",
          "name": "to",
          "type": "address"
        },
        {
          "internalType": "uint256",
          "name": "tokenId",
          "type": "uint256"
        },
        {
          "internalType": "bytes",
          "name": "data",
          "type": "bytes"
        }
      ],
      "name": "safeTransferFrom",
      "outputs": [],
      "stateMutability": "nonpayable",
      "type": "function"
    },
    {
      "inputs": [
        {
          "internalType": "address",
          "name": "operator",
          "type": "address"
        },
        {
          "internalType": "bool",
          "name": "approved",
          "type": "bool"
        }
      ],
      "name": "setApprovalForAll",
      "outputs": [],
      "stateMutability": "nonpayable",
      "type": "function"
    },
    {
      "inputs": [
        {
          "internalType": "bytes4",
          "name": "interfaceId",
          "type": "bytes4"
        }
      ],
      "name": "supportsInterface",
      "outputs": [
        {
          "internalType": "bool",
          "name": "",
          "type": "bool"
        }
      ],
      "stateMutability": "view",
      "type": "function"
    },
    {
      "inputs": [],
      "name": "symbol",
      "outputs": [
        {
          "internalType": "string",
          "name": "",
          "type": "string"
        }
      ],
      "stateMutability": "view",
      "type": "function"
    },
    {
      "inputs": [],
      "name": "tokenIds",
      "outputs": [
        {
          "internalType": "uint256",
          "name": "",
          "type": "uint256"
        }
      ],
      "stateMutability": "view",
      "type": "function"
    },
    {
      "inputs": [
        {
          "internalType": "uint256",
          "name": "tokenId",
          "type": "uint256"
        }
      ],
      "name": "tokenURI",
      "outputs": [
        {
          "internalType": "string",
          "name": "",
          "type": "string"
        }
      ],
      "stateMutability": "view",
      "type": "function"
    },
    {
      "inputs": [
        {
          "internalType": "address",
          "name": "from",
          "type": "address"
        },
        {
          "internalType": "address",
          "name": "to",
          "type": "address"
        },
        {
          "internalType": "uint256",
          "name": "tokenId",
          "type": "uint256"
        }
      ],
      "name": "transferFrom",
      "outputs": [],
      "stateMutability": "nonpayable",
      "type": "function"
    }
  ],
  "bytecode": "0x608060405234801561001057600080fd5b506040518060400160405280600881526020017f44696172794e46540000000000000000000000000000000000000000000000008152506040518060400160405280600581526020017f4449415259000000000000000000000000000000000000000000000000000000815250816000908161008c91906102fc565b50806001908161009c91906102fc565b50505060006006819055506103ce565b600081519050919050565b7f4e487b7100000000000000000000000000000000000000000000000000000000600052604160045260246000fd5b7f4e487b7100000000000000000000000000000000000000000000000000000000600052602260045260246000fd5b6000600282049050600182168061012d57607f821691505b6020821081036101405761013f6100e6565b5b50919050565b60008190508160005260206000209050919050565b60006020601f8301049050919050565b600082821b905092915050565b6000600883026101a87fffffffffffffffffffffffffffffffffffffffffffffffffffffffffffffffff8261016b565b6101b2868361016b565b95508019841693508086168417925050509392505050565b6000819050919050565b6000819050919050565b60006101f96101f46101ef846101ca565b6101d4565b6101ca565b9050919050565b6000819050919050565b610213836101de565b61022761021f82610200565b848454610178565b825550505050565b600090565b61023c61022f565b61024781848461020a565b505050565b5b8181101561026b57610260600082610234565b60018101905061024d565b5050565b601f8211156102b05761028181610146565b61028a8461015b565b81016020851015610299578190505b6102ad6102a58561015b565b83018261024c565b50505b505050565b600082821c905092915050565b60006102d3600019846008026102b5565b1980831691505092915050565b60006102ec83836102c2565b9150826002028217905092915050565b610305826100ac565b67ffffffffffffffff81111561031e5761031d6100b7565b5b6103288254610115565b61033382828561026f565b600060209050601f8311600181146103665760008415610354578287015190505b61035e85826102e0565b8655506103c6565b601f19841661037486610146565b60005b8281101561039c57848901518255600182019150602085019450602081019050610377565b868310156103b957848901516103b5601f8916826102c2565b8355505b6001600288020188555050505b505050505050565b6121d3806103dd6000396000f3fe608060405234801561001057600080fd5b50600436106100f55760003560e01c80636352211e11610097578063a22cb46511610066578063a22cb46514610298578063b88d4fde146102b4578063c87b56dd146102d0578063e985e9c514610300576100f5565b80636352211e146101fc57806370a082311461022c578063714cff561461025c57806395d89b411461027a576100f5565b8063095ea7b3116100d3578063095ea7b31461017857806323b872dd146101945780633838c19f146101b057806342842e0e146101e0576100f5565b806301ffc9a7146100fa57806306fdde031461012a578063081812fc14610148575b600080fd5b610114600480360381019061010f919061165b565b610330565b60405161012191906116a3565b60405180910390f35b610132610412565b60405161013f919061174e565b60405180910390f35b610162600480360381019061015d91906117a6565b6104a4565b60405161016f9190611814565b60405180910390f35b610192600480360381019061018d919061185b565b6104c0565b005b6101ae60048036038101906101a9919061189b565b6104d6565b005b6101ca60048036038101906101c59190611a23565b6105d8565b6040516101d79190611a8e565b60405180910390f35b6101fa60048036038101906101f5919061189b565b6106bc565b005b610216600480360381019061021191906117a6565b6106dc565b6040516102239190611814565b60405180910390f35b61024660048036038101906102419190611aa9565b6106ee565b6040516102539190611a8e565b60405180910390f35b6102646107a8565b6040516102719190611a8e565b60405180910390f35b6102826107ae565b60405161028f919061174e565b60405180910390f35b6102b260048036038101906102ad9190611b02565b610840565b005b6102ce60048036038101906102c99190611be3565b610856565b005b6102ea60048036038101906102e591906117a6565b61087b565b6040516102f7919061174e565b60405180910390f35b61031a60048036038101906103159190611c66565b61092a565b60405161032791906116a3565b60405180910390f35b60007f80ac58cd000000000000000000000000000000000000000000000000000000007bffffffffffffffffffffffffffffffffffffffffffffffffffffffff1916827bffffffffffffffffffffffffffffffffffffffffffffffffffffffff191614806103fb57507f5b5e139f000000000000000000000000000000000000000000000000000000007bffffffffffffffffffffffffffffffffffffffffffffffffffffffff1916827bffffffffffffffffffffffffffffffffffffffffffffffffffffffff1916145b8061040b575061040a826109be565b5b9050919050565b60606000805461042190611cd5565b80601f016020809104026020016040519081016040528092919081815260200182805461044d90611cd5565b801561049a5780601f1061046f5761010080835404028352916020019161049a565b820191906000526020600020905b81548152906001019060200180831161047d57829003601f168201915b5050505050905090565b60006104af82610a28565b506104b982610ab0565b9050919050565b6104d282826104cd610aed565b610af5565b5050565b600073ffffffffffffffffffffffffffffffffffffffff168273ffffffffffffffffffffffffffffffffffffffff16036105485760006040517f64a0ae9200000000000000000000000000000000000000000000000000000000815260040161053f9190611814565b60405180910390fd5b600061055c8383610557610aed565b610b07565b90508373ffffffffffffffffffffffffffffffffffffffff168173ffffffffffffffffffffffffffffffffffffffff16146105d2578382826040517f64283d7b0000000000000000000000000000000000000000000000000000000081526004016105c993929190611d06565b60405180910390fd5b50505050565b6000600660008154809291906105ed90611d6c565b9190505550600060065490506106038482610d21565b6106426040518060400160405280601881526020017f546865206e657720746f6b656e204964206973202573202e000000000000000081525082610d3f565b826007600083815260200190815260200160002090816106629190611f60565b508373ffffffffffffffffffffffffffffffffffffffff16817ffe38cbf6fe080990572c0d52aace3f2bee1c3ddb1adfd253922ba493d57eae84856040516106aa919061174e565b60405180910390a38091505092915050565b6106d783838360405180602001604052806000815250610856565b505050565b60006106e782610a28565b9050919050565b60008073ffffffffffffffffffffffffffffffffffffffff168273ffffffffffffffffffffffffffffffffffffffff16036107615760006040517f89c62b640000000000000000000000000000000000000000000000000000000081526004016107589190611814565b60405180910390fd5b600360008373ffffffffffffffffffffffffffffffffffffffff1673ffffffffffffffffffffffffffffffffffffffff168152602001908152602001600020549050919050565b60065481565b6060600180546107bd90611cd5565b80601f01602080910402602001604051908101604052809291908181526020018280546107e990611cd5565b80156108365780601f1061080b57610100808354040283529160200191610836565b820191906000526020600020905b81548152906001019060200180831161081957829003601f168201915b5050505050905090565b61085261084b610aed565b8383610ddb565b5050565b6108618484846104d6565b61087561086c610aed565b85858585610f4a565b50505050565b6060610886826106dc565b506007600083815260200190815260200160002080546108a590611cd5565b80601f01602080910402602001604051908101604052809291908181526020018280546108d190611cd5565b801561091e5780601f106108f35761010080835404028352916020019161091e565b820191906000526020600020905b81548152906001019060200180831161090157829003601f168201915b50505050509050919050565b6000600560008473ffffffffffffffffffffffffffffffffffffffff1673ffffffffffffffffffffffffffffffffffffffff16815260200190815260200160002060008373ffffffffffffffffffffffffffffffffffffffff1673ffffffffffffffffffffffffffffffffffffffff16815260200190815260200160002060009054906101000a900460ff16905092915050565b60007f01ffc9a7000000000000000000000000000000000000000000000000000000007bffffffffffffffffffffffffffffffffffffffffffffffffffffffff1916827bffffffffffffffffffffffffffffffffffffffffffffffffffffffff1916149050919050565b600080610a34836110fb565b9050600073ffffffffffffffffffffffffffffffffffffffff168173ffffffffffffffffffffffffffffffffffffffff1603610aa757826040517f7e273289000000000000000000000000000000000000000000000000000000008152600401610a9e9190611a8e565b60405180910390fd5b80915050919050565b60006004600083815260200190815260200160002060009054906101000a900473ffffffffffffffffffffffffffffffffffffffff169050919050565b600033905090565b610b028383836001611138565b505050565b600080610b13846110fb565b9050600073ffffffffffffffffffffffffffffffffffffffff168373ffffffffffffffffffffffffffffffffffffffff1614610b5557610b548184866112fd565b5b600073ffffffffffffffffffffffffffffffffffffffff168173ffffffffffffffffffffffffffffffffffffffff1614610be657610b97600085600080611138565b6001600360008373ffffffffffffffffffffffffffffffffffffffff1673ffffffffffffffffffffffffffffffffffffffff168152602001908152602001600020600082825403925050819055505b600073ffffffffffffffffffffffffffffffffffffffff168573ffffffffffffffffffffffffffffffffffffffff1614610c69576001600360008773ffffffffffffffffffffffffffffffffffffffff1673ffffffffffffffffffffffffffffffffffffffff168152602001908152602001600020600082825401925050819055505b846002600086815260200190815260200160002060006101000a81548173ffffffffffffffffffffffffffffffffffffffff021916908373ffffffffffffffffffffffffffffffffffffffff160217905550838573ffffffffffffffffffffffffffffffffffffffff168273ffffffffffffffffffffffffffffffffffffffff167fddf252ad1be2c89b69c2b068fc378daa952ba7f163c4a11628f55a4df523b3ef60405160405180910390a4809150509392505050565b610d3b8282604051806020016040528060008152506113c1565b5050565b610dd78282604051602401610d55929190612032565b6040516020818303038152906040527fb60e72cc000000000000000000000000000000000000000000000000000000007bffffffffffffffffffffffffffffffffffffffffffffffffffffffff19166020820180517bffffffffffffffffffffffffffffffffffffffffffffffffffffffff83818316178352505050506113e5565b5050565b600073ffffffffffffffffffffffffffffffffffffffff168273ffffffffffffffffffffffffffffffffffffffff1603610e4c57816040517f5b08ba18000000000000000000000000000000000000000000000000000000008152600401610e439190611814565b60405180910390fd5b80600560008573ffffffffffffffffffffffffffffffffffffffff1673ffffffffffffffffffffffffffffffffffffffff16815260200190815260200160002060008473ffffffffffffffffffffffffffffffffffffffff1673ffffffffffffffffffffffffffffffffffffffff16815260200190815260200160002060006101000a81548160ff0219169083151502179055508173ffffffffffffffffffffffffffffffffffffffff168373ffffffffffffffffffffffffffffffffffffffff167f17307eab39ab6107e8899845ad3d59bd9653f200f220920489ca2b5937696c3183604051610f3d91906116a3565b60405180910390a3505050565b60008373ffffffffffffffffffffffffffffffffffffffff163b11156110f4578273ffffffffffffffffffffffffffffffffffffffff1663150b7a02868685856040518563ffffffff1660e01b8152600401610fa994939291906120b7565b6020604051808303816000875af1925050508015610fe557506040513d601f19601f82011682018060405250810190610fe29190612118565b60015b611069573d8060008114611015576040519150601f19603f3d011682016040523d82523d6000602084013e61101a565b606091505b50600081510361106157836040517f64a0ae920000000000000000000000000000000000000000000000000000000081526004016110589190611814565b60405180910390fd5b805160208201fd5b63150b7a0260e01b7bffffffffffffffffffffffffffffffffffffffffffffffffffffffff1916817bffffffffffffffffffffffffffffffffffffffffffffffffffffffff1916146110f257836040517f64a0ae920000000000000000000000000000000000000000000000000000000081526004016110e99190611814565b60405180910390fd5b505b5050505050565b60006002600083815260200190815260200160002060009054906101000a900473ffffffffffffffffffffffffffffffffffffffff169050919050565b80806111715750600073ffffffffffffffffffffffffffffffffffffffff168273ffffffffffffffffffffffffffffffffffffffff1614155b156112a557600061118184610a28565b9050600073ffffffffffffffffffffffffffffffffffffffff168373ffffffffffffffffffffffffffffffffffffffff16141580156111ec57508273ffffffffffffffffffffffffffffffffffffffff168173ffffffffffffffffffffffffffffffffffffffff1614155b80156111ff57506111fd818461092a565b155b1561124157826040517fa9fbf51f0000000000000000000000000000000000000000000000000000000081526004016112389190611814565b60405180910390fd5b81156112a357838573ffffffffffffffffffffffffffffffffffffffff168273ffffffffffffffffffffffffffffffffffffffff167f8c5be1e5ebec7d5bd14f71427d1e84f3dd0314c0f7b2291e5b200ac8c7c3b92560405160405180910390a45b505b836004600085815260200190815260200160002060006101000a81548173ffffffffffffffffffffffffffffffffffffffff021916908373ffffffffffffffffffffffffffffffffffffffff16021790555050505050565b6113088383836113ff565b6113bc57600073ffffffffffffffffffffffffffffffffffffffff168373ffffffffffffffffffffffffffffffffffffffff160361137d57806040517f7e2732890000000000000000000000000000000000000000000000000000000081526004016113749190611a8e565b60405180910390fd5b81816040517f177e802f0000000000000000000000000000000000000000000000000000000081526004016113b3929190612145565b60405180910390fd5b505050565b6113cb83836114c0565b6113e06113d6610aed565b6000858585610f4a565b505050565b6113fc816113f46115b96115da565b63ffffffff16565b50565b60008073ffffffffffffffffffffffffffffffffffffffff168373ffffffffffffffffffffffffffffffffffffffff16141580156114b757508273ffffffffffffffffffffffffffffffffffffffff168473ffffffffffffffffffffffffffffffffffffffff1614806114785750611477848461092a565b5b806114b657508273ffffffffffffffffffffffffffffffffffffffff1661149e83610ab0565b73ffffffffffffffffffffffffffffffffffffffff16145b5b90509392505050565b600073ffffffffffffffffffffffffffffffffffffffff168273ffffffffffffffffffffffffffffffffffffffff16036115325760006040517f64a0ae920000000000000000000000000000000000000000000000000000000081526004016115299190611814565b60405180910390fd5b600061154083836000610b07565b9050600073ffffffffffffffffffffffffffffffffffffffff168173ffffffffffffffffffffffffffffffffffffffff16146115b45760006040517f73c6ac6e0000000000000000000000000000000000000000000000000000000081526004016115ab9190611814565b60405180910390fd5b505050565b60006a636f6e736f6c652e6c6f679050600080835160208501845afa505050565b6115e5819050919050565b6115ed61216e565b565b6000604051905090565b600080fd5b600080fd5b60007fffffffff0000000000000000000000000000000000000000000000000000000082169050919050565b61163881611603565b811461164357600080fd5b50565b6000813590506116558161162f565b92915050565b600060208284031215611671576116706115f9565b5b600061167f84828501611646565b91505092915050565b60008115159050919050565b61169d81611688565b82525050565b60006020820190506116b86000830184611694565b92915050565b600081519050919050565b600082825260208201905092915050565b60005b838110156116f85780820151818401526020810190506116dd565b60008484015250505050565b6000601f19601f8301169050919050565b6000611720826116be565b61172a81856116c9565b935061173a8185602086016116da565b61174381611704565b840191505092915050565b600060208201905081810360008301526117688184611715565b905092915050565b6000819050919050565b61178381611770565b811461178e57600080fd5b50565b6000813590506117a08161177a565b92915050565b6000602082840312156117bc576117bb6115f9565b5b60006117ca84828501611791565b91505092915050565b600073ffffffffffffffffffffffffffffffffffffffff82169050919050565b60006117fe826117d3565b9050919050565b61180e816117f3565b82525050565b60006020820190506118296000830184611805565b92915050565b611838816117f3565b811461184357600080fd5b50565b6000813590506118558161182f565b92915050565b60008060408385031215611872576118716115f9565b5b600061188085828601611846565b925050602061189185828601611791565b9150509250929050565b6000806000606084860312156118b4576118b36115f9565b5b60006118c286828701611846565b93505060206118d386828701611846565b92505060406118e486828701611791565b9150509250925092565b600080fd5b600080fd5b7f4e487b7100000000000000000000000000000000000000000000000000000000600052604160045260246000fd5b61193082611704565b810181811067ffffffffffffffff8211171561194f5761194e6118f8565b5b80604052505050565b60006119626115ef565b905061196e8282611927565b919050565b600067ffffffffffffffff82111561198e5761198d6118f8565b5b61199782611704565b9050602081019050919050565b82818337600083830152505050565b60006119c66119c184611973565b611958565b9050828152602081018484840111156119e2576119e16118f3565b5b6119ed8482856119a4565b509392505050565b600082601f830112611a0a57611a096118ee565b5b8135611a1a8482602086016119b3565b91505092915050565b60008060408385031215611a3a57611a396115f9565b5b6000611a4885828601611846565b925050602083013567ffffffffffffffff811115611a6957611a686115fe565b5b611a75858286016119f5565b9150509250929050565b611a8881611770565b82525050565b6000602082019050611aa36000830184611a7f565b92915050565b600060208284031215611abf57611abe6115f9565b5b6000611acd84828501611846565b91505092915050565b611adf81611688565b8114611aea57600080fd5b50565b600081359050611afc81611ad6565b92915050565b60008060408385031215611b1957611b186115f9565b5b6000611b2785828601611846565b9250506020611b3885828601611aed565b9150509250929050565b600067ffffffffffffffff821115611b5d57611b5c6118f8565b5b611b6682611704565b9050602081019050919050565b6000611b86611b8184611b42565b611958565b905082815260208101848484011115611ba257611ba16118f3565b5b611bad8482856119a4565b509392505050565b600082601f830112611bca57611bc96118ee565b5b8135611bda848260208601611b73565b91505092915050565b60008060008060808587031215611bfd57611bfc6115f9565b5b6000611c0b87828801611846565b9450506020611c1c87828801611846565b9350506040611c2d87828801611791565b925050606085013567ffffffffffffffff811115611c4e57611c4d6115fe565b5b611c5a87828801611bb5565b91505092959194509250565b60008060408385031215611c7d57611c7c6115f9565b5b6000611c8b85828601611846565b9250506020611c9c85828601611846565b9150509250929050565b7f4e487b7100000000000000000000000000000000000000000000000000000000600052602260045260246000fd5b60006002820490506001821680611ced57607f821691505b602082108103611d0057611cff611ca6565b5b50919050565b6000606082019050611d1b6000830186611805565b611d286020830185611a7f565b611d356040830184611805565b949350505050565b7f4e487b7100000000000000000000000000000000000000000000000000000000600052601160045260246000fd5b6000611d7782611770565b91507fffffffffffffffffffffffffffffffffffffffffffffffffffffffffffffffff8203611da957611da8611d3d565b5b600182019050919050565b60008190508160005260206000209050919050565b60006020601f8301049050919050565b600082821b905092915050565b600060088302611e167fffffffffffffffffffffffffffffffffffffffffffffffffffffffffffffffff82611dd9565b611e208683611dd9565b95508019841693508086168417925050509392505050565b6000819050919050565b6000611e5d611e58611e5384611770565b611e38565b611770565b9050919050565b6000819050919050565b611e7783611e42565b611e8b611e8382611e64565b848454611de6565b825550505050565b600090565b611ea0611e93565b611eab818484611e6e565b505050565b5b81811015611ecf57611ec4600082611e98565b600181019050611eb1565b5050565b601f821115611f1457611ee581611db4565b611eee84611dc9565b81016020851015611efd578190505b611f11611f0985611dc9565b830182611eb0565b50505b505050565b600082821c905092915050565b6000611f3760001984600802611f19565b1980831691505092915050565b6000611f508383611f26565b9150826002028217905092915050565b611f69826116be565b67ffffffffffffffff811115611f8257611f816118f8565b5b611f8c8254611cd5565b611f97828285611ed3565b600060209050601f831160018114611fca5760008415611fb8578287015190505b611fc28582611f44565b86555061202a565b601f198416611fd886611db4565b60005b8281101561200057848901518255600182019150602085019450602081019050611fdb565b8683101561201d5784890151612019601f891682611f26565b8355505b6001600288020188555050505b505050505050565b6000604082019050818103600083015261204c8185611715565b905061205b6020830184611a7f565b9392505050565b600081519050919050565b600082825260208201905092915050565b600061208982612062565b612093818561206d565b93506120a38185602086016116da565b6120ac81611704565b840191505092915050565b60006080820190506120cc6000830187611805565b6120d96020830186611805565b6120e66040830185611a7f565b81810360608301526120f8818461207e565b905095945050505050565b6000815190506121128161162f565b92915050565b60006020828403121561212e5761212d6115f9565b5b600061213c84828501612103565b91505092915050565b600060408201905061215a6000830185611805565b6121676020830184611a7f565b9392505050565b7f4e487b7100000000000000000000000000000000000000000000000000000000600052605160045260246000fdfea2646970667358221220089269f41a67e85d81308fad25adae9c4a0f1715c89a171c062b77fdfd278f2c64736f6c634300081c0033",
  "linkReferences": {},
  "deployedLinkReferences": {}
}