{
  "_format": "hh-sol-artifact-1",
  "contractName": "DiaryNFT",
  "sourceName": "contracts/DiaryNft.sol",
  "abi": [
    {
      "inputs": [],
      "stateMutability": "nonpayable",
      "type": "constructor"
    },
    {
      "inputs": [
        {
          "internalType": "address",
          "name": "sender",
          "type": "address"
        },
        {
          "internalType": "uint256",
          "name": "tokenId",
          "type": "uint256"
        },
        {
          "internalType": "address",
          "name": "owner",
          "type": "address"
        }
      ],
      "name": "ERC721IncorrectOwner",
      "type": "error"
    },
    {
      "inputs": [
        {
          "internalType": "address",
          "name": "operator",
          "type": "address"
        },
        {
          "internalType": "uint256",
          "name": "tokenId",
          "type": "uint256"
        }
      ],
      "name": "ERC721InsufficientApproval",
      "type": "error"
    },
    {
      "inputs": [
        {
          "internalType": "address",
          "name": "approver",
          "type": "address"
        }
      ],
      "name": "ERC721InvalidApprover",
      "type": "error"
    },
    {
      "inputs": [
        {
          "internalType": "address",
          "name": "operator",
          "type": "address"
        }
      ],
      "name": "ERC721InvalidOperator",
      "type": "error"
    },
    {
      "inputs": [
        {
          "internalType": "address",
          "name": "owner",
          "type": "address"
        }
      ],
      "name": "ERC721InvalidOwner",
      "type": "error"
    },
    {
      "inputs": [
        {
          "internalType": "address",
          "name": "receiver",
          "type": "address"
        }
      ],
      "name": "ERC721InvalidReceiver",
      "type": "error"
    },
    {
      "inputs": [
        {
          "internalType": "address",
          "name": "sender",
          "type": "address"
        }
      ],
      "name": "ERC721InvalidSender",
      "type": "error"
    },
    {
      "inputs": [
        {
          "internalType": "uint256",
          "name": "tokenId",
          "type": "uint256"
        }
      ],
      "name": "ERC721NonexistentToken",
      "type": "error"
    },
    {
      "anonymous": false,
      "inputs": [
        {
          "indexed": true,
          "internalType": "address",
          "name": "owner",
          "type": "address"
        },
        {
          "indexed": true,
          "internalType": "address",
          "name": "approved",
          "type": "address"
        },
        {
          "indexed": true,
          "internalType": "uint256",
          "name": "tokenId",
          "type": "uint256"
        }
      ],
      "name": "Approval",
      "type": "event"
    },
    {
      "anonymous": false,
      "inputs": [
        {
          "indexed": true,
          "internalType": "address",
          "name": "owner",
          "type": "address"
        },
        {
          "indexed": true,
          "internalType": "address",
          "name": "operator",
          "type": "address"
        },
        {
          "indexed": false,
          "internalType": "bool",
          "name": "approved",
          "type": "bool"
        }
      ],
      "name": "ApprovalForAll",
      "type": "event"
    },
    {
      "anonymous": false,
      "inputs": [
        {
          "indexed": true,
          "internalType": "uint256",
          "name": "tokenId",
          "type": "uint256"
        },
        {
          "indexed": true,
          "internalType": "address",
          "name": "recipient",
          "type": "address"
        },
        {
          "indexed": false,
          "internalType": "string",
          "name": "ipfsHash",
          "type": "string"
        }
      ],
      "name": "DiaryMinted",
      "type": "event"
    },
    {
      "anonymous": false,
      "inputs": [
        {
          "indexed": true,
          "internalType": "address",
          "name": "from",
          "type": "address"
        },
        {
          "indexed": true,
          "internalType": "address",
          "name": "to",
          "type": "address"
        },
        {
          "indexed": true,
          "internalType": "uint256",
          "name": "tokenId",
          "type": "uint256"
        }
      ],
      "name": "Transfer",
      "type": "event"
    },
    {
      "inputs": [
        {
          "internalType": "address",
          "name": "to",
          "type": "address"
        },
        {
          "internalType": "uint256",
          "name": "tokenId",
          "type": "uint256"
        }
      ],
      "name": "approve",
      "outputs": [],
      "stateMutability": "nonpayable",
      "type": "function"
    },
    {
      "inputs": [
        {
          "internalType": "address",
          "name": "owner",
          "type": "address"
        }
      ],
      "name": "balanceOf",
      "outputs": [
        {
          "internalType": "uint256",
          "name": "",
          "type": "uint256"
        }
      ],
      "stateMutability": "view",
      "type": "function"
    },
    {
      "inputs": [
        {
          "internalType": "uint256",
          "name": "tokenId",
          "type": "uint256"
        }
      ],
      "name": "getApproved",
      "outputs": [
        {
          "internalType": "address",
          "name": "",
          "type": "address"
        }
      ],
      "stateMutability": "view",
      "type": "function"
    },
    {
      "inputs": [
        {
          "internalType": "address",
          "name": "owner",
          "type": "address"
        },
        {
          "internalType": "address",
          "name": "operator",
          "type": "address"
        }
      ],
      "name": "isApprovedForAll",
      "outputs": [
        {
          "internalType": "bool",
          "name": "",
          "type": "bool"
        }
      ],
      "stateMutability": "view",
      "type": "function"
    },
    {
      "inputs": [
        {
          "internalType": "address",
          "name": "recipient",
          "type": "address"
        },
        {
          "internalType": "string",
          "name": "ipfsHash",
          "type": "string"
        }
      ],
      "name": "mintDiary",
      "outputs": [
        {
          "internalType": "uint256",
          "name": "",
          "type": "uint256"
        }
      ],
      "stateMutability": "nonpayable",
      "type": "function"
    },
    {
      "inputs": [],
      "name": "name",
      "outputs": [
        {
          "internalType": "string",
          "name": "",
          "type": "string"
        }
      ],
      "stateMutability": "view",
      "type": "function"
    },
    {
      "inputs": [
        {
          "internalType": "uint256",
          "name": "tokenId",
          "type": "uint256"
        }
      ],
      "name": "ownerOf",
      "outputs": [
        {
          "internalType": "address",
          "name": "",
          "type": "address"
        }
      ],
      "stateMutability": "view",
      "type": "function"
    },
    {
      "inputs": [
        {
          "internalType": "address",
          "name": "from",
          "type": "address"
        },
        {
          "internalType": "address",
          "name": "to",
          "type": "address"
        },
        {
          "internalType": "uint256",
          "name": "tokenId",
          "type": "uint256"
        }
      ],
      "name": "safeTransferFrom",
      "outputs": [],
      "stateMutability": "nonpayable",
      "type": "function"
    },
    {
      "inputs": [
        {
          "internalType": "address",
          "name": "from",
          "type": "address"
        },
        {
          "internalType": "address",
          "name": "to",
          "type": "address"
        },
        {
          "internalType": "uint256",
          "name": "tokenId",
          "type": "uint256"
        },
        {
          "internalType": "bytes",
          "name": "data",
          "type": "bytes"
        }
      ],
      "name": "safeTransferFrom",
      "outputs": [],
      "stateMutability": "nonpayable",
      "type": "function"
    },
    {
      "inputs": [
        {
          "internalType": "address",
          "name": "operator",
          "type": "address"
        },
        {
          "internalType": "bool",
          "name": "approved",
          "type": "bool"
        }
      ],
      "name": "setApprovalForAll",
      "outputs": [],
      "stateMutability": "nonpayable",
      "type": "function"
    },
    {
      "inputs": [
        {
          "internalType": "bytes4",
          "name": "interfaceId",
          "type": "bytes4"
        }
      ],
      "name": "supportsInterface",
      "outputs": [
        {
          "internalType": "bool",
          "name": "",
          "type": "bool"
        }
      ],
      "stateMutability": "view",
      "type": "function"
    },
    {
      "inputs": [],
      "name": "symbol",
      "outputs": [
        {
          "internalType": "string",
          "name": "",
          "type": "string"
        }
      ],
      "stateMutability": "view",
      "type": "function"
    },
    {
      "inputs": [
        {
          "internalType": "uint256",
          "name": "tokenId",
          "type": "uint256"
        }
      ],
      "name": "tokenURI",
      "outputs": [
        {
          "internalType": "string",
          "name": "",
          "type": "string"
        }
      ],
      "stateMutability": "view",
      "type": "function"
    },
    {
      "inputs": [
        {
          "internalType": "address",
          "name": "from",
          "type": "address"
        },
        {
          "internalType": "address",
          "name": "to",
          "type": "address"
        },
        {
          "internalType": "uint256",
          "name": "tokenId",
          "type": "uint256"
        }
      ],
      "name": "transferFrom",
      "outputs": [],
      "stateMutability": "nonpayable",
      "type": "function"
    }
  ],
  "bytecode": "0x608060405234801561001057600080fd5b506040518060400160405280600881526020017f44696172794e46540000000000000000000000000000000000000000000000008152506040518060400160405280600581526020017f4449415259000000000000000000000000000000000000000000000000000000815250816000908161008c91906102fc565b50806001908161009c91906102fc565b50505060006006819055506103ce565b600081519050919050565b7f4e487b7100000000000000000000000000000000000000000000000000000000600052604160045260246000fd5b7f4e487b7100000000000000000000000000000000000000000000000000000000600052602260045260246000fd5b6000600282049050600182168061012d57607f821691505b6020821081036101405761013f6100e6565b5b50919050565b60008190508160005260206000209050919050565b60006020601f8301049050919050565b600082821b905092915050565b6000600883026101a87fffffffffffffffffffffffffffffffffffffffffffffffffffffffffffffffff8261016b565b6101b2868361016b565b95508019841693508086168417925050509392505050565b6000819050919050565b6000819050919050565b60006101f96101f46101ef846101ca565b6101d4565b6101ca565b9050919050565b6000819050919050565b610213836101de565b61022761021f82610200565b848454610178565b825550505050565b600090565b61023c61022f565b61024781848461020a565b505050565b5b8181101561026b57610260600082610234565b60018101905061024d565b5050565b601f8211156102b05761028181610146565b61028a8461015b565b81016020851015610299578190505b6102ad6102a58561015b565b83018261024c565b50505b505050565b600082821c905092915050565b60006102d3600019846008026102b5565b1980831691505092915050565b60006102ec83836102c2565b9150826002028217905092915050565b610305826100ac565b67ffffffffffffffff81111561031e5761031d6100b7565b5b6103288254610115565b61033382828561026f565b600060209050601f8311600181146103665760008415610354578287015190505b61035e85826102e0565b8655506103c6565b601f19841661037486610146565b60005b8281101561039c57848901518255600182019150602085019450602081019050610377565b868310156103b957848901516103b5601f8916826102c2565b8355505b6001600288020188555050505b505050505050565b61201a806103dd6000396000f3fe608060405234801561001057600080fd5b50600436106100ea5760003560e01c80636352211e1161008c578063a22cb46511610066578063a22cb4651461026f578063b88d4fde1461028b578063c87b56dd146102a7578063e985e9c5146102d7576100ea565b80636352211e146101f157806370a082311461022157806395d89b4114610251576100ea565b8063095ea7b3116100c8578063095ea7b31461016d57806323b872dd146101895780633838c19f146101a557806342842e0e146101d5576100ea565b806301ffc9a7146100ef57806306fdde031461011f578063081812fc1461013d575b600080fd5b61010960048036038101906101049190611501565b610307565b6040516101169190611549565b60405180910390f35b6101276103e9565b60405161013491906115f4565b60405180910390f35b6101576004803603810190610152919061164c565b61047b565b60405161016491906116ba565b60405180910390f35b61018760048036038101906101829190611701565b610497565b005b6101a3600480360381019061019e9190611741565b6104ad565b005b6101bf60048036038101906101ba91906118c9565b6105af565b6040516101cc9190611934565b60405180910390f35b6101ef60048036038101906101ea9190611741565b610654565b005b61020b6004803603810190610206919061164c565b610674565b60405161021891906116ba565b60405180910390f35b61023b6004803603810190610236919061194f565b610686565b6040516102489190611934565b60405180910390f35b610259610740565b60405161026691906115f4565b60405180910390f35b610289600480360381019061028491906119a8565b6107d2565b005b6102a560048036038101906102a09190611a89565b6107e8565b005b6102c160048036038101906102bc919061164c565b61080d565b6040516102ce91906115f4565b60405180910390f35b6102f160048036038101906102ec9190611b0c565b6108bc565b6040516102fe9190611549565b60405180910390f35b60007f80ac58cd000000000000000000000000000000000000000000000000000000007bffffffffffffffffffffffffffffffffffffffffffffffffffffffff1916827bffffffffffffffffffffffffffffffffffffffffffffffffffffffff191614806103d257507f5b5e139f000000000000000000000000000000000000000000000000000000007bffffffffffffffffffffffffffffffffffffffffffffffffffffffff1916827bffffffffffffffffffffffffffffffffffffffffffffffffffffffff1916145b806103e257506103e182610950565b5b9050919050565b6060600080546103f890611b7b565b80601f016020809104026020016040519081016040528092919081815260200182805461042490611b7b565b80156104715780601f1061044657610100808354040283529160200191610471565b820191906000526020600020905b81548152906001019060200180831161045457829003601f168201915b5050505050905090565b6000610486826109ba565b5061049082610a42565b9050919050565b6104a982826104a4610a7f565b610a87565b5050565b600073ffffffffffffffffffffffffffffffffffffffff168273ffffffffffffffffffffffffffffffffffffffff160361051f5760006040517f64a0ae9200000000000000000000000000000000000000000000000000000000815260040161051691906116ba565b60405180910390fd5b6000610533838361052e610a7f565b610a99565b90508373ffffffffffffffffffffffffffffffffffffffff168173ffffffffffffffffffffffffffffffffffffffff16146105a9578382826040517f64283d7b0000000000000000000000000000000000000000000000000000000081526004016105a093929190611bac565b60405180910390fd5b50505050565b6000600660008154809291906105c490611c12565b9190505550600060065490506105da8482610cb3565b826007600083815260200190815260200160002090816105fa9190611e06565b508373ffffffffffffffffffffffffffffffffffffffff16817ffe38cbf6fe080990572c0d52aace3f2bee1c3ddb1adfd253922ba493d57eae848560405161064291906115f4565b60405180910390a38091505092915050565b61066f838383604051806020016040528060008152506107e8565b505050565b600061067f826109ba565b9050919050565b60008073ffffffffffffffffffffffffffffffffffffffff168273ffffffffffffffffffffffffffffffffffffffff16036106f95760006040517f89c62b640000000000000000000000000000000000000000000000000000000081526004016106f091906116ba565b60405180910390fd5b600360008373ffffffffffffffffffffffffffffffffffffffff1673ffffffffffffffffffffffffffffffffffffffff168152602001908152602001600020549050919050565b60606001805461074f90611b7b565b80601f016020809104026020016040519081016040528092919081815260200182805461077b90611b7b565b80156107c85780601f1061079d576101008083540402835291602001916107c8565b820191906000526020600020905b8154815290600101906020018083116107ab57829003601f168201915b5050505050905090565b6107e46107dd610a7f565b8383610cd1565b5050565b6107f38484846104ad565b6108076107fe610a7f565b85858585610e40565b50505050565b606061081882610674565b5060076000838152602001908152602001600020805461083790611b7b565b80601f016020809104026020016040519081016040528092919081815260200182805461086390611b7b565b80156108b05780601f10610885576101008083540402835291602001916108b0565b820191906000526020600020905b81548152906001019060200180831161089357829003601f168201915b50505050509050919050565b6000600560008473ffffffffffffffffffffffffffffffffffffffff1673ffffffffffffffffffffffffffffffffffffffff16815260200190815260200160002060008373ffffffffffffffffffffffffffffffffffffffff1673ffffffffffffffffffffffffffffffffffffffff16815260200190815260200160002060009054906101000a900460ff16905092915050565b60007f01ffc9a7000000000000000000000000000000000000000000000000000000007bffffffffffffffffffffffffffffffffffffffffffffffffffffffff1916827bffffffffffffffffffffffffffffffffffffffffffffffffffffffff1916149050919050565b6000806109c683610ff1565b9050600073ffffffffffffffffffffffffffffffffffffffff168173ffffffffffffffffffffffffffffffffffffffff1603610a3957826040517f7e273289000000000000000000000000000000000000000000000000000000008152600401610a309190611934565b60405180910390fd5b80915050919050565b60006004600083815260200190815260200160002060009054906101000a900473ffffffffffffffffffffffffffffffffffffffff169050919050565b600033905090565b610a94838383600161102e565b505050565b600080610aa584610ff1565b9050600073ffffffffffffffffffffffffffffffffffffffff168373ffffffffffffffffffffffffffffffffffffffff1614610ae757610ae68184866111f3565b5b600073ffffffffffffffffffffffffffffffffffffffff168173ffffffffffffffffffffffffffffffffffffffff1614610b7857610b2960008560008061102e565b6001600360008373ffffffffffffffffffffffffffffffffffffffff1673ffffffffffffffffffffffffffffffffffffffff168152602001908152602001600020600082825403925050819055505b600073ffffffffffffffffffffffffffffffffffffffff168573ffffffffffffffffffffffffffffffffffffffff1614610bfb576001600360008773ffffffffffffffffffffffffffffffffffffffff1673ffffffffffffffffffffffffffffffffffffffff168152602001908152602001600020600082825401925050819055505b846002600086815260200190815260200160002060006101000a81548173ffffffffffffffffffffffffffffffffffffffff021916908373ffffffffffffffffffffffffffffffffffffffff160217905550838573ffffffffffffffffffffffffffffffffffffffff168273ffffffffffffffffffffffffffffffffffffffff167fddf252ad1be2c89b69c2b068fc378daa952ba7f163c4a11628f55a4df523b3ef60405160405180910390a4809150509392505050565b610ccd8282604051806020016040528060008152506112b7565b5050565b600073ffffffffffffffffffffffffffffffffffffffff168273ffffffffffffffffffffffffffffffffffffffff1603610d4257816040517f5b08ba18000000000000000000000000000000000000000000000000000000008152600401610d3991906116ba565b60405180910390fd5b80600560008573ffffffffffffffffffffffffffffffffffffffff1673ffffffffffffffffffffffffffffffffffffffff16815260200190815260200160002060008473ffffffffffffffffffffffffffffffffffffffff1673ffffffffffffffffffffffffffffffffffffffff16815260200190815260200160002060006101000a81548160ff0219169083151502179055508173ffffffffffffffffffffffffffffffffffffffff168373ffffffffffffffffffffffffffffffffffffffff167f17307eab39ab6107e8899845ad3d59bd9653f200f220920489ca2b5937696c3183604051610e339190611549565b60405180910390a3505050565b60008373ffffffffffffffffffffffffffffffffffffffff163b1115610fea578273ffffffffffffffffffffffffffffffffffffffff1663150b7a02868685856040518563ffffffff1660e01b8152600401610e9f9493929190611f2d565b6020604051808303816000875af1925050508015610edb57506040513d601f19601f82011682018060405250810190610ed89190611f8e565b60015b610f5f573d8060008114610f0b576040519150601f19603f3d011682016040523d82523d6000602084013e610f10565b606091505b506000815103610f5757836040517f64a0ae92000000000000000000000000000000000000000000000000000000008152600401610f4e91906116ba565b60405180910390fd5b805160208201fd5b63150b7a0260e01b7bffffffffffffffffffffffffffffffffffffffffffffffffffffffff1916817bffffffffffffffffffffffffffffffffffffffffffffffffffffffff191614610fe857836040517f64a0ae92000000000000000000000000000000000000000000000000000000008152600401610fdf91906116ba565b60405180910390fd5b505b5050505050565b60006002600083815260200190815260200160002060009054906101000a900473ffffffffffffffffffffffffffffffffffffffff169050919050565b80806110675750600073ffffffffffffffffffffffffffffffffffffffff168273ffffffffffffffffffffffffffffffffffffffff1614155b1561119b576000611077846109ba565b9050600073ffffffffffffffffffffffffffffffffffffffff168373ffffffffffffffffffffffffffffffffffffffff16141580156110e257508273ffffffffffffffffffffffffffffffffffffffff168173ffffffffffffffffffffffffffffffffffffffff1614155b80156110f557506110f381846108bc565b155b1561113757826040517fa9fbf51f00000000000000000000000000000000000000000000000000000000815260040161112e91906116ba565b60405180910390fd5b811561119957838573ffffffffffffffffffffffffffffffffffffffff168273ffffffffffffffffffffffffffffffffffffffff167f8c5be1e5ebec7d5bd14f71427d1e84f3dd0314c0f7b2291e5b200ac8c7c3b92560405160405180910390a45b505b836004600085815260200190815260200160002060006101000a81548173ffffffffffffffffffffffffffffffffffffffff021916908373ffffffffffffffffffffffffffffffffffffffff16021790555050505050565b6111fe8383836112db565b6112b257600073ffffffffffffffffffffffffffffffffffffffff168373ffffffffffffffffffffffffffffffffffffffff160361127357806040517f7e27328900000000000000000000000000000000000000000000000000000000815260040161126a9190611934565b60405180910390fd5b81816040517f177e802f0000000000000000000000000000000000000000000000000000000081526004016112a9929190611fbb565b60405180910390fd5b505050565b6112c1838361139c565b6112d66112cc610a7f565b6000858585610e40565b505050565b60008073ffffffffffffffffffffffffffffffffffffffff168373ffffffffffffffffffffffffffffffffffffffff161415801561139357508273ffffffffffffffffffffffffffffffffffffffff168473ffffffffffffffffffffffffffffffffffffffff161480611354575061135384846108bc565b5b8061139257508273ffffffffffffffffffffffffffffffffffffffff1661137a83610a42565b73ffffffffffffffffffffffffffffffffffffffff16145b5b90509392505050565b600073ffffffffffffffffffffffffffffffffffffffff168273ffffffffffffffffffffffffffffffffffffffff160361140e5760006040517f64a0ae9200000000000000000000000000000000000000000000000000000000815260040161140591906116ba565b60405180910390fd5b600061141c83836000610a99565b9050600073ffffffffffffffffffffffffffffffffffffffff168173ffffffffffffffffffffffffffffffffffffffff16146114905760006040517f73c6ac6e00000000000000000000000000000000000000000000000000000000815260040161148791906116ba565b60405180910390fd5b505050565b6000604051905090565b600080fd5b600080fd5b60007fffffffff0000000000000000000000000000000000000000000000000000000082169050919050565b6114de816114a9565b81146114e957600080fd5b50565b6000813590506114fb816114d5565b92915050565b6000602082840312156115175761151661149f565b5b6000611525848285016114ec565b91505092915050565b60008115159050919050565b6115438161152e565b82525050565b600060208201905061155e600083018461153a565b92915050565b600081519050919050565b600082825260208201905092915050565b60005b8381101561159e578082015181840152602081019050611583565b60008484015250505050565b6000601f19601f8301169050919050565b60006115c682611564565b6115d0818561156f565b93506115e0818560208601611580565b6115e9816115aa565b840191505092915050565b6000602082019050818103600083015261160e81846115bb565b905092915050565b6000819050919050565b61162981611616565b811461163457600080fd5b50565b60008135905061164681611620565b92915050565b6000602082840312156116625761166161149f565b5b600061167084828501611637565b91505092915050565b600073ffffffffffffffffffffffffffffffffffffffff82169050919050565b60006116a482611679565b9050919050565b6116b481611699565b82525050565b60006020820190506116cf60008301846116ab565b92915050565b6116de81611699565b81146116e957600080fd5b50565b6000813590506116fb816116d5565b92915050565b600080604083850312156117185761171761149f565b5b6000611726858286016116ec565b925050602061173785828601611637565b9150509250929050565b60008060006060848603121561175a5761175961149f565b5b6000611768868287016116ec565b9350506020611779868287016116ec565b925050604061178a86828701611637565b9150509250925092565b600080fd5b600080fd5b7f4e487b7100000000000000000000000000000000000000000000000000000000600052604160045260246000fd5b6117d6826115aa565b810181811067ffffffffffffffff821117156117f5576117f461179e565b5b80604052505050565b6000611808611495565b905061181482826117cd565b919050565b600067ffffffffffffffff8211156118345761183361179e565b5b61183d826115aa565b9050602081019050919050565b82818337600083830152505050565b600061186c61186784611819565b6117fe565b90508281526020810184848401111561188857611887611799565b5b61189384828561184a565b509392505050565b600082601f8301126118b0576118af611794565b5b81356118c0848260208601611859565b91505092915050565b600080604083850312156118e0576118df61149f565b5b60006118ee858286016116ec565b925050602083013567ffffffffffffffff81111561190f5761190e6114a4565b5b61191b8582860161189b565b9150509250929050565b61192e81611616565b82525050565b60006020820190506119496000830184611925565b92915050565b6000602082840312156119655761196461149f565b5b6000611973848285016116ec565b91505092915050565b6119858161152e565b811461199057600080fd5b50565b6000813590506119a28161197c565b92915050565b600080604083850312156119bf576119be61149f565b5b60006119cd858286016116ec565b92505060206119de85828601611993565b9150509250929050565b600067ffffffffffffffff821115611a0357611a0261179e565b5b611a0c826115aa565b9050602081019050919050565b6000611a2c611a27846119e8565b6117fe565b905082815260208101848484011115611a4857611a47611799565b5b611a5384828561184a565b509392505050565b600082601f830112611a7057611a6f611794565b5b8135611a80848260208601611a19565b91505092915050565b60008060008060808587031215611aa357611aa261149f565b5b6000611ab1878288016116ec565b9450506020611ac2878288016116ec565b9350506040611ad387828801611637565b925050606085013567ffffffffffffffff811115611af457611af36114a4565b5b611b0087828801611a5b565b91505092959194509250565b60008060408385031215611b2357611b2261149f565b5b6000611b31858286016116ec565b9250506020611b42858286016116ec565b9150509250929050565b7f4e487b7100000000000000000000000000000000000000000000000000000000600052602260045260246000fd5b60006002820490506001821680611b9357607f821691505b602082108103611ba657611ba5611b4c565b5b50919050565b6000606082019050611bc160008301866116ab565b611bce6020830185611925565b611bdb60408301846116ab565b949350505050565b7f4e487b7100000000000000000000000000000000000000000000000000000000600052601160045260246000fd5b6000611c1d82611616565b91507fffffffffffffffffffffffffffffffffffffffffffffffffffffffffffffffff8203611c4f57611c4e611be3565b5b600182019050919050565b60008190508160005260206000209050919050565b60006020601f8301049050919050565b600082821b905092915050565b600060088302611cbc7fffffffffffffffffffffffffffffffffffffffffffffffffffffffffffffffff82611c7f565b611cc68683611c7f565b95508019841693508086168417925050509392505050565b6000819050919050565b6000611d03611cfe611cf984611616565b611cde565b611616565b9050919050565b6000819050919050565b611d1d83611ce8565b611d31611d2982611d0a565b848454611c8c565b825550505050565b600090565b611d46611d39565b611d51818484611d14565b505050565b5b81811015611d7557611d6a600082611d3e565b600181019050611d57565b5050565b601f821115611dba57611d8b81611c5a565b611d9484611c6f565b81016020851015611da3578190505b611db7611daf85611c6f565b830182611d56565b50505b505050565b600082821c905092915050565b6000611ddd60001984600802611dbf565b1980831691505092915050565b6000611df68383611dcc565b9150826002028217905092915050565b611e0f82611564565b67ffffffffffffffff811115611e2857611e2761179e565b5b611e328254611b7b565b611e3d828285611d79565b600060209050601f831160018114611e705760008415611e5e578287015190505b611e688582611dea565b865550611ed0565b601f198416611e7e86611c5a565b60005b82811015611ea657848901518255600182019150602085019450602081019050611e81565b86831015611ec35784890151611ebf601f891682611dcc565b8355505b6001600288020188555050505b505050505050565b600081519050919050565b600082825260208201905092915050565b6000611eff82611ed8565b611f098185611ee3565b9350611f19818560208601611580565b611f22816115aa565b840191505092915050565b6000608082019050611f4260008301876116ab565b611f4f60208301866116ab565b611f5c6040830185611925565b8181036060830152611f6e8184611ef4565b905095945050505050565b600081519050611f88816114d5565b92915050565b600060208284031215611fa457611fa361149f565b5b6000611fb284828501611f79565b91505092915050565b6000604082019050611fd060008301856116ab565b611fdd6020830184611925565b939250505056fea26469706673582212200184f88553f6a83aa8ebc1308a1e8a2afe16e2a0675148778a1b40de515c278564736f6c634300081c0033",
  "linkReferences": {},
  "deployedLinkReferences": {}
}